{
  "contractName": "NFT_MarketPlace",
  "abi": [
    {
      "inputs": [],
      "stateMutability": "nonpayable",
      "type": "constructor"
    },
    {
      "anonymous": false,
      "inputs": [
        {
          "indexed": true,
          "internalType": "address",
          "name": "owner",
          "type": "address"
        },
        {
          "indexed": true,
          "internalType": "address",
          "name": "approved",
          "type": "address"
        },
        {
          "indexed": true,
          "internalType": "uint256",
          "name": "tokenId",
          "type": "uint256"
        }
      ],
      "name": "Approval",
      "type": "event"
    },
    {
      "anonymous": false,
      "inputs": [
        {
          "indexed": true,
          "internalType": "address",
          "name": "owner",
          "type": "address"
        },
        {
          "indexed": true,
          "internalType": "address",
          "name": "operator",
          "type": "address"
        },
        {
          "indexed": false,
          "internalType": "bool",
          "name": "approved",
          "type": "bool"
        }
      ],
      "name": "ApprovalForAll",
      "type": "event"
    },
    {
      "anonymous": false,
      "inputs": [
        {
          "indexed": false,
          "internalType": "uint256",
          "name": "_fromTokenId",
          "type": "uint256"
        },
        {
          "indexed": false,
          "internalType": "uint256",
          "name": "_toTokenId",
          "type": "uint256"
        }
      ],
      "name": "BatchMetadataUpdate",
      "type": "event"
    },
    {
      "anonymous": false,
      "inputs": [
        {
          "indexed": false,
          "internalType": "uint256",
          "name": "_tokenId",
          "type": "uint256"
        }
      ],
      "name": "MetadataUpdate",
      "type": "event"
    },
    {
      "anonymous": false,
      "inputs": [
        {
          "indexed": true,
          "internalType": "address",
          "name": "from",
          "type": "address"
        },
        {
          "indexed": true,
          "internalType": "address",
          "name": "to",
          "type": "address"
        },
        {
          "indexed": true,
          "internalType": "uint256",
          "name": "tokenId",
          "type": "uint256"
        }
      ],
      "name": "Transfer",
      "type": "event"
    },
    {
      "inputs": [
        {
          "internalType": "address",
          "name": "to",
          "type": "address"
        },
        {
          "internalType": "uint256",
          "name": "tokenId",
          "type": "uint256"
        }
      ],
      "name": "approve",
      "outputs": [],
      "stateMutability": "nonpayable",
      "type": "function"
    },
    {
      "inputs": [
        {
          "internalType": "address",
          "name": "owner",
          "type": "address"
        }
      ],
      "name": "balanceOf",
      "outputs": [
        {
          "internalType": "uint256",
          "name": "",
          "type": "uint256"
        }
      ],
      "stateMutability": "view",
      "type": "function"
    },
    {
      "inputs": [
        {
          "internalType": "uint256",
          "name": "tokenId",
          "type": "uint256"
        }
      ],
      "name": "getApproved",
      "outputs": [
        {
          "internalType": "address",
          "name": "",
          "type": "address"
        }
      ],
      "stateMutability": "view",
      "type": "function"
    },
    {
      "inputs": [
        {
          "internalType": "address",
          "name": "owner",
          "type": "address"
        },
        {
          "internalType": "address",
          "name": "operator",
          "type": "address"
        }
      ],
      "name": "isApprovedForAll",
      "outputs": [
        {
          "internalType": "bool",
          "name": "",
          "type": "bool"
        }
      ],
      "stateMutability": "view",
      "type": "function"
    },
    {
      "inputs": [],
      "name": "name",
      "outputs": [
        {
          "internalType": "string",
          "name": "",
          "type": "string"
        }
      ],
      "stateMutability": "view",
      "type": "function"
    },
    {
      "inputs": [
        {
          "internalType": "uint256",
          "name": "tokenId",
          "type": "uint256"
        }
      ],
      "name": "ownerOf",
      "outputs": [
        {
          "internalType": "address",
          "name": "",
          "type": "address"
        }
      ],
      "stateMutability": "view",
      "type": "function"
    },
    {
      "inputs": [
        {
          "internalType": "address",
          "name": "from",
          "type": "address"
        },
        {
          "internalType": "address",
          "name": "to",
          "type": "address"
        },
        {
          "internalType": "uint256",
          "name": "tokenId",
          "type": "uint256"
        }
      ],
      "name": "safeTransferFrom",
      "outputs": [],
      "stateMutability": "nonpayable",
      "type": "function"
    },
    {
      "inputs": [
        {
          "internalType": "address",
          "name": "from",
          "type": "address"
        },
        {
          "internalType": "address",
          "name": "to",
          "type": "address"
        },
        {
          "internalType": "uint256",
          "name": "tokenId",
          "type": "uint256"
        },
        {
          "internalType": "bytes",
          "name": "data",
          "type": "bytes"
        }
      ],
      "name": "safeTransferFrom",
      "outputs": [],
      "stateMutability": "nonpayable",
      "type": "function"
    },
    {
      "inputs": [
        {
          "internalType": "address",
          "name": "operator",
          "type": "address"
        },
        {
          "internalType": "bool",
          "name": "approved",
          "type": "bool"
        }
      ],
      "name": "setApprovalForAll",
      "outputs": [],
      "stateMutability": "nonpayable",
      "type": "function"
    },
    {
      "inputs": [
        {
          "internalType": "bytes4",
          "name": "interfaceId",
          "type": "bytes4"
        }
      ],
      "name": "supportsInterface",
      "outputs": [
        {
          "internalType": "bool",
          "name": "",
          "type": "bool"
        }
      ],
      "stateMutability": "view",
      "type": "function"
    },
    {
      "inputs": [],
      "name": "symbol",
      "outputs": [
        {
          "internalType": "string",
          "name": "",
          "type": "string"
        }
      ],
      "stateMutability": "view",
      "type": "function"
    },
    {
      "inputs": [
        {
          "internalType": "uint256",
          "name": "tokenId",
          "type": "uint256"
        }
      ],
      "name": "tokenURI",
      "outputs": [
        {
          "internalType": "string",
          "name": "",
          "type": "string"
        }
      ],
      "stateMutability": "view",
      "type": "function"
    },
    {
      "inputs": [
        {
          "internalType": "address",
          "name": "from",
          "type": "address"
        },
        {
          "internalType": "address",
          "name": "to",
          "type": "address"
        },
        {
          "internalType": "uint256",
          "name": "tokenId",
          "type": "uint256"
        }
      ],
      "name": "transferFrom",
      "outputs": [],
      "stateMutability": "nonpayable",
      "type": "function"
    },
    {
      "inputs": [
        {
          "internalType": "string",
          "name": "tokenURI",
          "type": "string"
        }
      ],
      "name": "createNFT",
      "outputs": [],
      "stateMutability": "nonpayable",
      "type": "function"
    },
    {
      "inputs": [],
      "name": "getOwnedNFts",
      "outputs": [
        {
          "internalType": "uint256[]",
          "name": "",
          "type": "uint256[]"
        }
      ],
      "stateMutability": "view",
      "type": "function"
    },
    {
      "inputs": [
        {
          "internalType": "uint256",
          "name": "_tokenID",
          "type": "uint256"
        },
        {
          "internalType": "uint256",
          "name": "_price",
          "type": "uint256"
        }
      ],
      "name": "listNFT",
      "outputs": [],
      "stateMutability": "nonpayable",
      "type": "function"
    },
    {
      "inputs": [],
      "name": "getListedNFTs",
      "outputs": [
        {
          "components": [
            {
              "internalType": "uint256",
              "name": "tokenId",
              "type": "uint256"
            },
            {
              "internalType": "uint256",
              "name": "price",
              "type": "uint256"
            },
            {
              "internalType": "address payable",
              "name": "seller",
              "type": "address"
            }
          ],
          "internalType": "struct NFT_MarketPlace.Token[]",
          "name": "",
          "type": "tuple[]"
        }
      ],
      "stateMutability": "view",
      "type": "function"
    },
    {
      "inputs": [
        {
          "internalType": "uint256",
          "name": "_tokenID",
          "type": "uint256"
        }
      ],
      "name": "buyNFT",
      "outputs": [
        {
          "internalType": "bool",
          "name": "",
          "type": "bool"
        }
      ],
      "stateMutability": "payable",
      "type": "function"
    }
  ],
  "bytecode": "0x60806040523480156200001157600080fd5b506040518060400160405280600881526020017f47616d654974656d0000000000000000000000000000000000000000000000008152506040518060400160405280600381526020017f49544d0000000000000000000000000000000000000000000000000000000000815250816000908051906020019062000096929190620000b8565b508060019080519060200190620000af929190620000b8565b505050620001cd565b828054620000c69062000168565b90600052602060002090601f016020900481019282620000ea576000855562000136565b82601f106200010557805160ff191683800117855562000136565b8280016001018555821562000136579182015b828111156200013557825182559160200191906001019062000118565b5b50905062000145919062000149565b5090565b5b80821115620001645760008160009055506001016200014a565b5090565b600060028204905060018216806200018157607f821691505b602082108114156200019857620001976200019e565b5b50919050565b7f4e487b7100000000000000000000000000000000000000000000000000000000600052602260045260246000fd5b613cf980620001dd6000396000f3fe6080604052600436106101095760003560e01c806370a0823111610095578063b88d4fde11610064578063b88d4fde14610380578063c87b56dd146103a9578063da2ed03e146103e6578063e985e9c51461040f578063ee48b7a11461044c57610109565b806370a08231146102c657806394383f141461030357806395d89b411461032c578063a22cb4651461035757610109565b8063095ea7b3116100dc578063095ea7b3146101de57806323b872dd1461020757806342842e0e1461023057806351ed8288146102595780636352211e1461028957610109565b8063012386f01461010e57806301ffc9a71461013957806306fdde0314610176578063081812fc146101a1575b600080fd5b34801561011a57600080fd5b50610123610477565b604051610130919061323a565b60405180910390f35b34801561014557600080fd5b50610160600480360381019061015b9190612bf8565b610540565b60405161016d919061327e565b60405180910390f35b34801561018257600080fd5b5061018b6105a1565b6040516101989190613299565b60405180910390f35b3480156101ad57600080fd5b506101c860048036038101906101c39190612c8f565b610633565b6040516101d5919061319c565b60405180910390f35b3480156101ea57600080fd5b5061020560048036038101906102009190612bbc565b610679565b005b34801561021357600080fd5b5061022e60048036038101906102299190612ab6565b610791565b005b34801561023c57600080fd5b5061025760048036038101906102529190612ab6565b6107f1565b005b610273600480360381019061026e9190612c8f565b610811565b604051610280919061327e565b60405180910390f35b34801561029557600080fd5b506102b060048036038101906102ab9190612c8f565b610d0b565b6040516102bd919061319c565b60405180910390f35b3480156102d257600080fd5b506102ed60048036038101906102e89190612a51565b610d92565b6040516102fa91906134bb565b60405180910390f35b34801561030f57600080fd5b5061032a60048036038101906103259190612cb8565b610e4a565b005b34801561033857600080fd5b5061034161133e565b60405161034e9190613299565b60405180910390f35b34801561036357600080fd5b5061037e60048036038101906103799190612b80565b6113d0565b005b34801561038c57600080fd5b506103a760048036038101906103a29190612b05565b6113e6565b005b3480156103b557600080fd5b506103d060048036038101906103cb9190612c8f565b611448565b6040516103dd9190613299565b60405180910390f35b3480156103f257600080fd5b5061040d60048036038101906104089190612c4a565b61155b565b005b34801561041b57600080fd5b5061043660048036038101906104319190612a7a565b611636565b604051610443919061327e565b60405180910390f35b34801561045857600080fd5b506104616116ca565b60405161046e919061325c565b60405180910390f35b6060600a805480602002602001604051908101604052809291908181526020016000905b82821015610537578382906000526020600020906003020160405180606001604052908160008201548152602001600182015481526020016002820160009054906101000a900473ffffffffffffffffffffffffffffffffffffffff1673ffffffffffffffffffffffffffffffffffffffff1673ffffffffffffffffffffffffffffffffffffffff16815250508152602001906001019061049b565b50505050905090565b6000634906490660e01b7bffffffffffffffffffffffffffffffffffffffffffffffffffffffff1916827bffffffffffffffffffffffffffffffffffffffffffffffffffffffff1916148061059a57506105998261175f565b5b9050919050565b6060600080546105b0906136e8565b80601f01602080910402602001604051908101604052809291908181526020018280546105dc906136e8565b80156106295780601f106105fe57610100808354040283529160200191610629565b820191906000526020600020905b81548152906001019060200180831161060c57829003601f168201915b5050505050905090565b600061063e82611841565b6004600083815260200190815260200160002060009054906101000a900473ffffffffffffffffffffffffffffffffffffffff169050919050565b600061068482610d0b565b90508073ffffffffffffffffffffffffffffffffffffffff168373ffffffffffffffffffffffffffffffffffffffff1614156106f5576040517f08c379a00000000000000000000000000000000000000000000000000000000081526004016106ec9061345b565b60405180910390fd5b8073ffffffffffffffffffffffffffffffffffffffff1661071461188c565b73ffffffffffffffffffffffffffffffffffffffff16148061074357506107428161073d61188c565b611636565b5b610782576040517f08c379a00000000000000000000000000000000000000000000000000000000081526004016107799061347b565b60405180910390fd5b61078c8383611894565b505050565b6107a261079c61188c565b8261194d565b6107e1576040517f08c379a00000000000000000000000000000000000000000000000000000000081526004016107d8906132bb565b60405180910390fd5b6107ec8383836119e2565b505050565b61080c838383604051806020016040528060008152506113e6565b505050565b60008060096000848152602001908152602001600020600101541161086b576040517f08c379a0000000000000000000000000000000000000000000000000000000008152600401610862906133db565b60405180910390fd5b600960008381526020019081526020016000206001015434146108c3576040517f08c379a00000000000000000000000000000000000000000000000000000000081526004016108ba9061341b565b60405180910390fd5b3073ffffffffffffffffffffffffffffffffffffffff166323b872dd3033856040518463ffffffff1660e01b8152600401610900939291906131b7565b600060405180830381600087803b15801561091a57600080fd5b505af115801561092e573d6000803e3d6000fd5b50505050600860003373ffffffffffffffffffffffffffffffffffffffff1673ffffffffffffffffffffffffffffffffffffffff16815260200190815260200160002082908060018154018082558091505060019003906000526020600020016000909190919091505560006009600084815260200190815260200160002060020160009054906101000a900473ffffffffffffffffffffffffffffffffffffffff1673ffffffffffffffffffffffffffffffffffffffff16346040516109f490613187565b60006040518083038185875af1925050503d8060008114610a31576040519150601f19603f3d011682016040523d82523d6000602084013e610a36565b606091505b5050905060405180606001604052806000815260200160008152602001600073ffffffffffffffffffffffffffffffffffffffff1681525060096000858152602001908152602001600020600082015181600001556020820151816001015560408201518160020160006101000a81548173ffffffffffffffffffffffffffffffffffffffff021916908373ffffffffffffffffffffffffffffffffffffffff16021790555090505060005b600a80549050811015610d015783600a8281548110610b2a577f4e487b7100000000000000000000000000000000000000000000000000000000600052603260045260246000fd5b9060005260206000209060030201600001541415610cee57600a6001600a80549050610b5691906135ec565b81548110610b8d577f4e487b7100000000000000000000000000000000000000000000000000000000600052603260045260246000fd5b9060005260206000209060030201600a8281548110610bd5577f4e487b7100000000000000000000000000000000000000000000000000000000600052603260045260246000fd5b906000526020600020906003020160008201548160000155600182015481600101556002820160009054906101000a900473ffffffffffffffffffffffffffffffffffffffff168160020160006101000a81548173ffffffffffffffffffffffffffffffffffffffff021916908373ffffffffffffffffffffffffffffffffffffffff160217905550905050600a805480610c99577f4e487b7100000000000000000000000000000000000000000000000000000000600052603160045260246000fd5b600190038181906000526020600020906003020160008082016000905560018201600090556002820160006101000a81549073ffffffffffffffffffffffffffffffffffffffff021916905550509055610d01565b8080610cf99061374b565b915050610ae2565b5080915050919050565b600080610d1783611cdc565b9050600073ffffffffffffffffffffffffffffffffffffffff168173ffffffffffffffffffffffffffffffffffffffff161415610d89576040517f08c379a0000000000000000000000000000000000000000000000000000000008152600401610d809061343b565b60405180910390fd5b80915050919050565b60008073ffffffffffffffffffffffffffffffffffffffff168273ffffffffffffffffffffffffffffffffffffffff161415610e03576040517f08c379a0000000000000000000000000000000000000000000000000000000008152600401610dfa9061337b565b60405180910390fd5b600360008373ffffffffffffffffffffffffffffffffffffffff1673ffffffffffffffffffffffffffffffffffffffff168152602001908152602001600020549050919050565b60008111610e8d576040517f08c379a0000000000000000000000000000000000000000000000000000000008152600401610e84906133bb565b60405180910390fd5b3373ffffffffffffffffffffffffffffffffffffffff16610ead83610d0b565b73ffffffffffffffffffffffffffffffffffffffff1614610f03576040517f08c379a0000000000000000000000000000000000000000000000000000000008152600401610efa9061349b565b60405180910390fd5b610f0e333084610791565b60405180606001604052808381526020018281526020013373ffffffffffffffffffffffffffffffffffffffff1681525060096000848152602001908152602001600020600082015181600001556020820151816001015560408201518160020160006101000a81548173ffffffffffffffffffffffffffffffffffffffff021916908373ffffffffffffffffffffffffffffffffffffffff160217905550905050600a60096000848152602001908152602001600020908060018154018082558091505060019003906000526020600020906003020160009091909190915060008201548160000155600182015481600101556002820160009054906101000a900473ffffffffffffffffffffffffffffffffffffffff168160020160006101000a81548173ffffffffffffffffffffffffffffffffffffffff021916908373ffffffffffffffffffffffffffffffffffffffff160217905550505060005b600860003373ffffffffffffffffffffffffffffffffffffffff1673ffffffffffffffffffffffffffffffffffffffff168152602001908152602001600020805490508110156113395782600860003373ffffffffffffffffffffffffffffffffffffffff1673ffffffffffffffffffffffffffffffffffffffff1681526020019081526020016000208281548110611130577f4e487b7100000000000000000000000000000000000000000000000000000000600052603260045260246000fd5b9060005260206000200154141561132657600860003373ffffffffffffffffffffffffffffffffffffffff1673ffffffffffffffffffffffffffffffffffffffff1681526020019081526020016000206001600860003373ffffffffffffffffffffffffffffffffffffffff1673ffffffffffffffffffffffffffffffffffffffff168152602001908152602001600020805490506111cf91906135ec565b81548110611206577f4e487b7100000000000000000000000000000000000000000000000000000000600052603260045260246000fd5b9060005260206000200154600860003373ffffffffffffffffffffffffffffffffffffffff1673ffffffffffffffffffffffffffffffffffffffff1681526020019081526020016000208281548110611288577f4e487b7100000000000000000000000000000000000000000000000000000000600052603260045260246000fd5b9060005260206000200181905550600860003373ffffffffffffffffffffffffffffffffffffffff1673ffffffffffffffffffffffffffffffffffffffff16815260200190815260200160002080548061130b577f4e487b7100000000000000000000000000000000000000000000000000000000600052603160045260246000fd5b60019003818190600052602060002001600090559055611339565b80806113319061374b565b91505061106e565b505050565b60606001805461134d906136e8565b80601f0160208091040260200160405190810160405280929190818152602001828054611379906136e8565b80156113c65780601f1061139b576101008083540402835291602001916113c6565b820191906000526020600020905b8154815290600101906020018083116113a957829003601f168201915b5050505050905090565b6113e26113db61188c565b8383611d19565b5050565b6113f76113f161188c565b8361194d565b611436576040517f08c379a000000000000000000000000000000000000000000000000000000000815260040161142d906132bb565b60405180910390fd5b61144284848484611e86565b50505050565b606061145382611841565b6000600660008481526020019081526020016000208054611473906136e8565b80601f016020809104026020016040519081016040528092919081815260200182805461149f906136e8565b80156114ec5780601f106114c1576101008083540402835291602001916114ec565b820191906000526020600020905b8154815290600101906020018083116114cf57829003601f168201915b5050505050905060006114fd611ee2565b9050600081511415611513578192505050611556565b600082511115611548578082604051602001611530929190613163565b60405160208183030381529060405292505050611556565b61155184611ef9565b925050505b919050565b6115656007611f61565b60006115716007611f77565b905061157d3382611f85565b6115cb8184848080601f016020809104026020016040519081016040528093929190818152602001838380828437600081840152601f19601f82011690508083019250505050505050611fa3565b600860003373ffffffffffffffffffffffffffffffffffffffff1673ffffffffffffffffffffffffffffffffffffffff168152602001908152602001600020819080600181540180825580915050600190039060005260206000200160009091909190915055505050565b6000600560008473ffffffffffffffffffffffffffffffffffffffff1673ffffffffffffffffffffffffffffffffffffffff16815260200190815260200160002060008373ffffffffffffffffffffffffffffffffffffffff1673ffffffffffffffffffffffffffffffffffffffff16815260200190815260200160002060009054906101000a900460ff16905092915050565b6060600860003373ffffffffffffffffffffffffffffffffffffffff1673ffffffffffffffffffffffffffffffffffffffff16815260200190815260200160002080548060200260200160405190810160405280929190818152602001828054801561175557602002820191906000526020600020905b815481526020019060010190808311611741575b5050505050905090565b60007f80ac58cd000000000000000000000000000000000000000000000000000000007bffffffffffffffffffffffffffffffffffffffffffffffffffffffff1916827bffffffffffffffffffffffffffffffffffffffffffffffffffffffff1916148061182a57507f5b5e139f000000000000000000000000000000000000000000000000000000007bffffffffffffffffffffffffffffffffffffffffffffffffffffffff1916827bffffffffffffffffffffffffffffffffffffffffffffffffffffffff1916145b8061183a57506118398261204e565b5b9050919050565b61184a816120b8565b611889576040517f08c379a00000000000000000000000000000000000000000000000000000000081526004016118809061343b565b60405180910390fd5b50565b600033905090565b816004600083815260200190815260200160002060006101000a81548173ffffffffffffffffffffffffffffffffffffffff021916908373ffffffffffffffffffffffffffffffffffffffff160217905550808273ffffffffffffffffffffffffffffffffffffffff1661190783610d0b565b73ffffffffffffffffffffffffffffffffffffffff167f8c5be1e5ebec7d5bd14f71427d1e84f3dd0314c0f7b2291e5b200ac8c7c3b92560405160405180910390a45050565b60008061195983610d0b565b90508073ffffffffffffffffffffffffffffffffffffffff168473ffffffffffffffffffffffffffffffffffffffff16148061199b575061199a8185611636565b5b806119d957508373ffffffffffffffffffffffffffffffffffffffff166119c184610633565b73ffffffffffffffffffffffffffffffffffffffff16145b91505092915050565b8273ffffffffffffffffffffffffffffffffffffffff16611a0282610d0b565b73ffffffffffffffffffffffffffffffffffffffff1614611a58576040517f08c379a0000000000000000000000000000000000000000000000000000000008152600401611a4f906132fb565b60405180910390fd5b600073ffffffffffffffffffffffffffffffffffffffff168273ffffffffffffffffffffffffffffffffffffffff161415611ac8576040517f08c379a0000000000000000000000000000000000000000000000000000000008152600401611abf9061333b565b60405180910390fd5b611ad583838360016120f9565b8273ffffffffffffffffffffffffffffffffffffffff16611af582610d0b565b73ffffffffffffffffffffffffffffffffffffffff1614611b4b576040517f08c379a0000000000000000000000000000000000000000000000000000000008152600401611b42906132fb565b60405180910390fd5b6004600082815260200190815260200160002060006101000a81549073ffffffffffffffffffffffffffffffffffffffff02191690556001600360008573ffffffffffffffffffffffffffffffffffffffff1673ffffffffffffffffffffffffffffffffffffffff168152602001908152602001600020600082825403925050819055506001600360008473ffffffffffffffffffffffffffffffffffffffff1673ffffffffffffffffffffffffffffffffffffffff16815260200190815260200160002060008282540192505081905550816002600083815260200190815260200160002060006101000a81548173ffffffffffffffffffffffffffffffffffffffff021916908373ffffffffffffffffffffffffffffffffffffffff160217905550808273ffffffffffffffffffffffffffffffffffffffff168473ffffffffffffffffffffffffffffffffffffffff167fddf252ad1be2c89b69c2b068fc378daa952ba7f163c4a11628f55a4df523b3ef60405160405180910390a4611cd783838360016120ff565b505050565b60006002600083815260200190815260200160002060009054906101000a900473ffffffffffffffffffffffffffffffffffffffff169050919050565b8173ffffffffffffffffffffffffffffffffffffffff168373ffffffffffffffffffffffffffffffffffffffff161415611d88576040517f08c379a0000000000000000000000000000000000000000000000000000000008152600401611d7f9061335b565b60405180910390fd5b80600560008573ffffffffffffffffffffffffffffffffffffffff1673ffffffffffffffffffffffffffffffffffffffff16815260200190815260200160002060008473ffffffffffffffffffffffffffffffffffffffff1673ffffffffffffffffffffffffffffffffffffffff16815260200190815260200160002060006101000a81548160ff0219169083151502179055508173ffffffffffffffffffffffffffffffffffffffff168373ffffffffffffffffffffffffffffffffffffffff167f17307eab39ab6107e8899845ad3d59bd9653f200f220920489ca2b5937696c3183604051611e79919061327e565b60405180910390a3505050565b611e918484846119e2565b611e9d84848484612105565b611edc576040517f08c379a0000000000000000000000000000000000000000000000000000000008152600401611ed3906132db565b60405180910390fd5b50505050565b606060405180602001604052806000815250905090565b6060611f0482611841565b6000611f0e611ee2565b90506000815111611f2e5760405180602001604052806000815250611f59565b80611f388461229c565b604051602001611f49929190613163565b6040516020818303038152906040525b915050919050565b6001816000016000828254019250508190555050565b600081600001549050919050565b611f9f8282604051806020016040528060008152506123c0565b5050565b611fac826120b8565b611feb576040517f08c379a0000000000000000000000000000000000000000000000000000000008152600401611fe29061339b565b60405180910390fd5b80600660008481526020019081526020016000209080519060200190612012929190612893565b507ff8e1a15aba9398e019f0b49df1a4fde98ee17ae345cb5f6b5e2c27f5033e8ce78260405161204291906134bb565b60405180910390a15050565b60007f01ffc9a7000000000000000000000000000000000000000000000000000000007bffffffffffffffffffffffffffffffffffffffffffffffffffffffff1916827bffffffffffffffffffffffffffffffffffffffffffffffffffffffff1916149050919050565b60008073ffffffffffffffffffffffffffffffffffffffff166120da83611cdc565b73ffffffffffffffffffffffffffffffffffffffff1614159050919050565b50505050565b50505050565b60006121268473ffffffffffffffffffffffffffffffffffffffff1661241b565b1561228f578373ffffffffffffffffffffffffffffffffffffffff1663150b7a0261214f61188c565b8786866040518563ffffffff1660e01b815260040161217194939291906131ee565b602060405180830381600087803b15801561218b57600080fd5b505af19250505080156121bc57506040513d601f19601f820116820180604052508101906121b99190612c21565b60015b61223f573d80600081146121ec576040519150601f19603f3d011682016040523d82523d6000602084013e6121f1565b606091505b50600081511415612237576040517f08c379a000000000000000000000000000000000000000000000000000000000815260040161222e906132db565b60405180910390fd5b805181602001fd5b63150b7a0260e01b7bffffffffffffffffffffffffffffffffffffffffffffffffffffffff1916817bffffffffffffffffffffffffffffffffffffffffffffffffffffffff191614915050612294565b600190505b949350505050565b6060600060016122ab8461243e565b01905060008167ffffffffffffffff8111156122f0577f4e487b7100000000000000000000000000000000000000000000000000000000600052604160045260246000fd5b6040519080825280601f01601f1916602001820160405280156123225781602001600182028036833780820191505090505b509050600082602001820190505b6001156123b5578080600190039150507f3031323334353637383961626364656600000000000000000000000000000000600a86061a8153600a858161239f577f4e487b7100000000000000000000000000000000000000000000000000000000600052601260045260246000fd5b04945060008514156123b0576123b5565b612330565b819350505050919050565b6123ca8383612675565b6123d76000848484612105565b612416576040517f08c379a000000000000000000000000000000000000000000000000000000000815260040161240d906132db565b60405180910390fd5b505050565b6000808273ffffffffffffffffffffffffffffffffffffffff163b119050919050565b600080600090507a184f03e93ff9f4daa797ed6e38ed64bf6a1f01000000000000000083106124c2577a184f03e93ff9f4daa797ed6e38ed64bf6a1f01000000000000000083816124b8577f4e487b7100000000000000000000000000000000000000000000000000000000600052601260045260246000fd5b0492506040810190505b6d04ee2d6d415b85acef81000000008310612525576d04ee2d6d415b85acef8100000000838161251b577f4e487b7100000000000000000000000000000000000000000000000000000000600052601260045260246000fd5b0492506020810190505b662386f26fc10000831061257a57662386f26fc100008381612570577f4e487b7100000000000000000000000000000000000000000000000000000000600052601260045260246000fd5b0492506010810190505b6305f5e10083106125c9576305f5e10083816125bf577f4e487b7100000000000000000000000000000000000000000000000000000000600052601260045260246000fd5b0492506008810190505b612710831061261457612710838161260a577f4e487b7100000000000000000000000000000000000000000000000000000000600052601260045260246000fd5b0492506004810190505b6064831061265d5760648381612653577f4e487b7100000000000000000000000000000000000000000000000000000000600052601260045260246000fd5b0492506002810190505b600a831061266c576001810190505b80915050919050565b600073ffffffffffffffffffffffffffffffffffffffff168273ffffffffffffffffffffffffffffffffffffffff1614156126e5576040517f08c379a00000000000000000000000000000000000000000000000000000000081526004016126dc906133fb565b60405180910390fd5b6126ee816120b8565b1561272e576040517f08c379a00000000000000000000000000000000000000000000000000000000081526004016127259061331b565b60405180910390fd5b61273c6000838360016120f9565b612745816120b8565b15612785576040517f08c379a000000000000000000000000000000000000000000000000000000000815260040161277c9061331b565b60405180910390fd5b6001600360008473ffffffffffffffffffffffffffffffffffffffff1673ffffffffffffffffffffffffffffffffffffffff16815260200190815260200160002060008282540192505081905550816002600083815260200190815260200160002060006101000a81548173ffffffffffffffffffffffffffffffffffffffff021916908373ffffffffffffffffffffffffffffffffffffffff160217905550808273ffffffffffffffffffffffffffffffffffffffff16600073ffffffffffffffffffffffffffffffffffffffff167fddf252ad1be2c89b69c2b068fc378daa952ba7f163c4a11628f55a4df523b3ef60405160405180910390a461288f6000838360016120ff565b5050565b82805461289f906136e8565b90600052602060002090601f0160209004810192826128c15760008555612908565b82601f106128da57805160ff1916838001178555612908565b82800160010185558215612908579182015b828111156129075782518255916020019190600101906128ec565b5b5090506129159190612919565b5090565b5b8082111561293257600081600090555060010161291a565b5090565b6000612949612944846134fb565b6134d6565b90508281526020810184848401111561296157600080fd5b61296c8482856136a6565b509392505050565b60008135905061298381613c67565b92915050565b60008135905061299881613c7e565b92915050565b6000813590506129ad81613c95565b92915050565b6000815190506129c281613c95565b92915050565b600082601f8301126129d957600080fd5b81356129e9848260208601612936565b91505092915050565b60008083601f840112612a0457600080fd5b8235905067ffffffffffffffff811115612a1d57600080fd5b602083019150836001820283011115612a3557600080fd5b9250929050565b600081359050612a4b81613cac565b92915050565b600060208284031215612a6357600080fd5b6000612a7184828501612974565b91505092915050565b60008060408385031215612a8d57600080fd5b6000612a9b85828601612974565b9250506020612aac85828601612974565b9150509250929050565b600080600060608486031215612acb57600080fd5b6000612ad986828701612974565b9350506020612aea86828701612974565b9250506040612afb86828701612a3c565b9150509250925092565b60008060008060808587031215612b1b57600080fd5b6000612b2987828801612974565b9450506020612b3a87828801612974565b9350506040612b4b87828801612a3c565b925050606085013567ffffffffffffffff811115612b6857600080fd5b612b74878288016129c8565b91505092959194509250565b60008060408385031215612b9357600080fd5b6000612ba185828601612974565b9250506020612bb285828601612989565b9150509250929050565b60008060408385031215612bcf57600080fd5b6000612bdd85828601612974565b9250506020612bee85828601612a3c565b9150509250929050565b600060208284031215612c0a57600080fd5b6000612c188482850161299e565b91505092915050565b600060208284031215612c3357600080fd5b6000612c41848285016129b3565b91505092915050565b60008060208385031215612c5d57600080fd5b600083013567ffffffffffffffff811115612c7757600080fd5b612c83858286016129f2565b92509250509250929050565b600060208284031215612ca157600080fd5b6000612caf84828501612a3c565b91505092915050565b60008060408385031215612ccb57600080fd5b6000612cd985828601612a3c565b9250506020612cea85828601612a3c565b9150509250929050565b6000612d008383613103565b60608301905092915050565b6000612d188383613145565b60208301905092915050565b612d2d81613632565b82525050565b612d3c81613620565b82525050565b6000612d4d8261354c565b612d578185613592565b9350612d628361352c565b8060005b83811015612d93578151612d7a8882612cf4565b9750612d8583613578565b925050600181019050612d66565b5085935050505092915050565b6000612dab82613557565b612db581856135a3565b9350612dc08361353c565b8060005b83811015612df1578151612dd88882612d0c565b9750612de383613585565b925050600181019050612dc4565b5085935050505092915050565b612e0781613644565b82525050565b6000612e1882613562565b612e2281856135b4565b9350612e328185602086016136b5565b612e3b81613821565b840191505092915050565b6000612e518261356d565b612e5b81856135d0565b9350612e6b8185602086016136b5565b612e7481613821565b840191505092915050565b6000612e8a8261356d565b612e9481856135e1565b9350612ea48185602086016136b5565b80840191505092915050565b6000612ebd602d836135d0565b9150612ec882613832565b604082019050919050565b6000612ee06032836135d0565b9150612eeb82613881565b604082019050919050565b6000612f036025836135d0565b9150612f0e826138d0565b604082019050919050565b6000612f26601c836135d0565b9150612f318261391f565b602082019050919050565b6000612f496024836135d0565b9150612f5482613948565b604082019050919050565b6000612f6c6019836135d0565b9150612f7782613997565b602082019050919050565b6000612f8f6029836135d0565b9150612f9a826139c0565b604082019050919050565b6000612fb2602e836135d0565b9150612fbd82613a0f565b604082019050919050565b6000612fd56028836135d0565b9150612fe082613a5e565b604082019050919050565b6000612ff86020836135d0565b915061300382613aad565b602082019050919050565b600061301b6020836135d0565b915061302682613ad6565b602082019050919050565b600061303e602c836135d0565b915061304982613aff565b604082019050919050565b60006130616018836135d0565b915061306c82613b4e565b602082019050919050565b60006130846021836135d0565b915061308f82613b77565b604082019050919050565b60006130a76000836135c5565b91506130b282613bc6565b600082019050919050565b60006130ca603d836135d0565b91506130d582613bc9565b604082019050919050565b60006130ed6021836135d0565b91506130f882613c18565b604082019050919050565b6060820160008201516131196000850182613145565b50602082015161312c6020850182613145565b50604082015161313f6040850182612d24565b50505050565b61314e8161369c565b82525050565b61315d8161369c565b82525050565b600061316f8285612e7f565b915061317b8284612e7f565b91508190509392505050565b60006131928261309a565b9150819050919050565b60006020820190506131b16000830184612d33565b92915050565b60006060820190506131cc6000830186612d33565b6131d96020830185612d33565b6131e66040830184613154565b949350505050565b60006080820190506132036000830187612d33565b6132106020830186612d33565b61321d6040830185613154565b818103606083015261322f8184612e0d565b905095945050505050565b600060208201905081810360008301526132548184612d42565b905092915050565b600060208201905081810360008301526132768184612da0565b905092915050565b60006020820190506132936000830184612dfe565b92915050565b600060208201905081810360008301526132b38184612e46565b905092915050565b600060208201905081810360008301526132d481612eb0565b9050919050565b600060208201905081810360008301526132f481612ed3565b9050919050565b6000602082019050818103600083015261331481612ef6565b9050919050565b6000602082019050818103600083015261333481612f19565b9050919050565b6000602082019050818103600083015261335481612f3c565b9050919050565b6000602082019050818103600083015261337481612f5f565b9050919050565b6000602082019050818103600083015261339481612f82565b9050919050565b600060208201905081810360008301526133b481612fa5565b9050919050565b600060208201905081810360008301526133d481612fc8565b9050919050565b600060208201905081810360008301526133f481612feb565b9050919050565b600060208201905081810360008301526134148161300e565b9050919050565b6000602082019050818103600083015261343481613031565b9050919050565b6000602082019050818103600083015261345481613054565b9050919050565b6000602082019050818103600083015261347481613077565b9050919050565b60006020820190508181036000830152613494816130bd565b9050919050565b600060208201905081810360008301526134b4816130e0565b9050919050565b60006020820190506134d06000830184613154565b92915050565b60006134e06134f1565b90506134ec828261371a565b919050565b6000604051905090565b600067ffffffffffffffff821115613516576135156137f2565b5b61351f82613821565b9050602081019050919050565b6000819050602082019050919050565b6000819050602082019050919050565b600081519050919050565b600081519050919050565b600081519050919050565b600081519050919050565b6000602082019050919050565b6000602082019050919050565b600082825260208201905092915050565b600082825260208201905092915050565b600082825260208201905092915050565b600081905092915050565b600082825260208201905092915050565b600081905092915050565b60006135f78261369c565b91506136028361369c565b92508282101561361557613614613794565b5b828203905092915050565b600061362b8261367c565b9050919050565b600061363d8261367c565b9050919050565b60008115159050919050565b60007fffffffff0000000000000000000000000000000000000000000000000000000082169050919050565b600073ffffffffffffffffffffffffffffffffffffffff82169050919050565b6000819050919050565b82818337600083830152505050565b60005b838110156136d35780820151818401526020810190506136b8565b838111156136e2576000848401525b50505050565b6000600282049050600182168061370057607f821691505b60208210811415613714576137136137c3565b5b50919050565b61372382613821565b810181811067ffffffffffffffff82111715613742576137416137f2565b5b80604052505050565b60006137568261369c565b91507fffffffffffffffffffffffffffffffffffffffffffffffffffffffffffffffff82141561378957613788613794565b5b600182019050919050565b7f4e487b7100000000000000000000000000000000000000000000000000000000600052601160045260246000fd5b7f4e487b7100000000000000000000000000000000000000000000000000000000600052602260045260246000fd5b7f4e487b7100000000000000000000000000000000000000000000000000000000600052604160045260246000fd5b6000601f19601f8301169050919050565b7f4552433732313a2063616c6c6572206973206e6f7420746f6b656e206f776e6560008201527f72206f7220617070726f76656400000000000000000000000000000000000000602082015250565b7f4552433732313a207472616e7366657220746f206e6f6e20455243373231526560008201527f63656976657220696d706c656d656e7465720000000000000000000000000000602082015250565b7f4552433732313a207472616e736665722066726f6d20696e636f72726563742060008201527f6f776e6572000000000000000000000000000000000000000000000000000000602082015250565b7f4552433732313a20746f6b656e20616c7265616479206d696e74656400000000600082015250565b7f4552433732313a207472616e7366657220746f20746865207a65726f2061646460008201527f7265737300000000000000000000000000000000000000000000000000000000602082015250565b7f4552433732313a20617070726f766520746f2063616c6c657200000000000000600082015250565b7f4552433732313a2061646472657373207a65726f206973206e6f74206120766160008201527f6c6964206f776e65720000000000000000000000000000000000000000000000602082015250565b7f45524337323155524953746f726167653a2055524920736574206f66206e6f6e60008201527f6578697374656e7420746f6b656e000000000000000000000000000000000000602082015250565b7f4e4654204d61726b65743a207072696365206d7573742062652067726561746560008201527f72207468616e2030000000000000000000000000000000000000000000000000602082015250565b7f4e4654204d61726b65743a204974656d206973206e6f7420666f722073616c65600082015250565b7f4552433732313a206d696e7420746f20746865207a65726f2061646472657373600082015250565b7f4e4654204d61726b65743a204e6f742073756666696369656e74204d6f6e657960008201527f207472616e736665727265640000000000000000000000000000000000000000602082015250565b7f4552433732313a20696e76616c696420746f6b656e2049440000000000000000600082015250565b7f4552433732313a20617070726f76616c20746f2063757272656e74206f776e6560008201527f7200000000000000000000000000000000000000000000000000000000000000602082015250565b50565b7f4552433732313a20617070726f76652063616c6c6572206973206e6f7420746f60008201527f6b656e206f776e6572206f7220617070726f76656420666f7220616c6c000000602082015250565b7f4e4654204d61726b65743a20596f7520617265206e6f7420746865206f776e6560008201527f7200000000000000000000000000000000000000000000000000000000000000602082015250565b613c7081613620565b8114613c7b57600080fd5b50565b613c8781613644565b8114613c9257600080fd5b50565b613c9e81613650565b8114613ca957600080fd5b50565b613cb58161369c565b8114613cc057600080fd5b5056fea2646970667358221220dd4761663b86a1bb32e578cb6c8eb5bcd8c9eb79e6225f70a61a3cd603d7100464736f6c63430008040033",
  "immutableReferences": {},
  "source": "// SPDX-License-Identifier: MIT\r\npragma solidity ^0.8.4;\r\n\r\nimport \"@openzeppelin/contracts/token/ERC721/extensions/ERC721URIStorage.sol\";\r\nimport \"@openzeppelin/contracts/utils/Counters.sol\";\r\n\r\ncontract NFT_MarketPlace is ERC721URIStorage {\r\n    using Counters for Counters.Counter;\r\n    Counters.Counter private _tokenIds;\r\n\r\n    constructor() ERC721(\"GameItem\", \"ITM\") {}\r\n\r\n    mapping(address => uint256[]) private ownedNFTs;\r\n    mapping(uint256 => Token) private _item;\r\n\r\n    struct Token {\r\n        uint256 tokenId;\r\n        uint256 price;\r\n        address payable seller;\r\n    }\r\n\r\n    Token[] private _items;\r\n\r\n    function createNFT(string calldata tokenURI) public {\r\n        _tokenIds.increment();\r\n        uint256 currentId = _tokenIds.current();\r\n        _safeMint(msg.sender, currentId);\r\n        _setTokenURI(currentId, tokenURI);\r\n        ownedNFTs[msg.sender].push(currentId);\r\n    }\r\n\r\n    function getOwnedNFts() public view returns (uint256[] memory) {\r\n        return ownedNFTs[msg.sender];\r\n    }\r\n\r\n    function listNFT(uint256 _tokenID, uint256 _price) public {\r\n        require(_price > 0, \"NFT Market: price must be greater than 0\");\r\n        require(ownerOf(_tokenID) == msg.sender,\"NFT Market: You are not the owner\");\r\n\r\n        transferFrom(msg.sender, address(this), _tokenID);\r\n\r\n        _item[_tokenID] = Token({\r\n            tokenId: _tokenID,\r\n            price: _price,\r\n            seller: payable(msg.sender)\r\n        });\r\n        _items.push(_item[_tokenID]);\r\n\r\n        for(uint i=0; i<ownedNFTs[msg.sender].length; i++){\r\n            if(ownedNFTs[msg.sender][i]==_tokenID){\r\n                ownedNFTs[msg.sender][i] = ownedNFTs[msg.sender][ownedNFTs[msg.sender].length-1];\r\n                ownedNFTs[msg.sender].pop();\r\n                break;\r\n            }\r\n        }\r\n    }\r\n\r\n    function getListedNFTs() public view returns(Token[] memory){\r\n        return _items;\r\n    }\r\n\r\n    function buyNFT(uint256 _tokenID) public payable returns(bool) {\r\n        require(_item[_tokenID].price > 0, \"NFT Market: Item is not for sale\");\r\n        require(msg.value == _item[_tokenID].price, \"NFT Market: Not sufficient Money transferred\");\r\n\r\n        // NFT Transfer\r\n        (ERC721(address(this))).transferFrom(address(this), msg.sender, _tokenID);\r\n        ownedNFTs[msg.sender].push(_tokenID);\r\n\r\n        // Ether Transfer\r\n        (bool success, ) = _item[_tokenID].seller.call{value: msg.value}(\"\");\r\n\r\n        _item[_tokenID] = Token({\r\n            tokenId: 0,\r\n            price: 0,\r\n            seller: payable(address(0))\r\n        });\r\n\r\n        for(uint256 i=0; i<_items.length; i++){\r\n            if(_items[i].tokenId == _tokenID){\r\n                _items[i] = _items[_items.length-1];\r\n                _items.pop();\r\n                break;\r\n            }\r\n        }\r\n\r\n        return success;\r\n    }\r\n\r\n}",
  "sourcePath": "C:\\Users\\uttam\\OneDrive\\Desktop\\blockchain\\contracts\\NFT_Marketplace.sol",
  "compiler": {
    "name": "solc",
    "version": "0.8.4+commit.c7e474f2.Emscripten.clang"
  },
  "schemaVersion": "3.4.16",
  "updatedAt": "2024-12-19T10:26:39.417Z",
  "devdoc": {
    "kind": "dev",
    "methods": {
      "approve(address,uint256)": {
        "details": "See {IERC721-approve}."
      },
      "balanceOf(address)": {
        "details": "See {IERC721-balanceOf}."
      },
      "getApproved(uint256)": {
        "details": "See {IERC721-getApproved}."
      },
      "isApprovedForAll(address,address)": {
        "details": "See {IERC721-isApprovedForAll}."
      },
      "name()": {
        "details": "See {IERC721Metadata-name}."
      },
      "ownerOf(uint256)": {
        "details": "See {IERC721-ownerOf}."
      },
      "safeTransferFrom(address,address,uint256)": {
        "details": "See {IERC721-safeTransferFrom}."
      },
      "safeTransferFrom(address,address,uint256,bytes)": {
        "details": "See {IERC721-safeTransferFrom}."
      },
      "setApprovalForAll(address,bool)": {
        "details": "See {IERC721-setApprovalForAll}."
      },
      "supportsInterface(bytes4)": {
        "details": "See {IERC165-supportsInterface}"
      },
      "symbol()": {
        "details": "See {IERC721Metadata-symbol}."
      },
      "tokenURI(uint256)": {
        "details": "See {IERC721Metadata-tokenURI}."
      },
      "transferFrom(address,address,uint256)": {
        "details": "See {IERC721-transferFrom}."
      }
    },
    "version": 1
  },
  "userdoc": {
    "kind": "user",
    "methods": {},
    "version": 1
  }
}