{
  "contractName": "NFT_MarketPlace",
  "abi": [
    {
      "inputs": [],
      "stateMutability": "nonpayable",
      "type": "constructor"
    },
    {
      "anonymous": false,
      "inputs": [
        {
          "indexed": true,
          "internalType": "address",
          "name": "owner",
          "type": "address"
        },
        {
          "indexed": true,
          "internalType": "address",
          "name": "approved",
          "type": "address"
        },
        {
          "indexed": true,
          "internalType": "uint256",
          "name": "tokenId",
          "type": "uint256"
        }
      ],
      "name": "Approval",
      "type": "event"
    },
    {
      "anonymous": false,
      "inputs": [
        {
          "indexed": true,
          "internalType": "address",
          "name": "owner",
          "type": "address"
        },
        {
          "indexed": true,
          "internalType": "address",
          "name": "operator",
          "type": "address"
        },
        {
          "indexed": false,
          "internalType": "bool",
          "name": "approved",
          "type": "bool"
        }
      ],
      "name": "ApprovalForAll",
      "type": "event"
    },
    {
      "anonymous": false,
      "inputs": [
        {
          "indexed": false,
          "internalType": "uint256",
          "name": "_fromTokenId",
          "type": "uint256"
        },
        {
          "indexed": false,
          "internalType": "uint256",
          "name": "_toTokenId",
          "type": "uint256"
        }
      ],
      "name": "BatchMetadataUpdate",
      "type": "event"
    },
    {
      "anonymous": false,
      "inputs": [
        {
          "indexed": false,
          "internalType": "uint256",
          "name": "_tokenId",
          "type": "uint256"
        }
      ],
      "name": "MetadataUpdate",
      "type": "event"
    },
    {
      "anonymous": false,
      "inputs": [
        {
          "indexed": true,
          "internalType": "address",
          "name": "from",
          "type": "address"
        },
        {
          "indexed": true,
          "internalType": "address",
          "name": "to",
          "type": "address"
        },
        {
          "indexed": true,
          "internalType": "uint256",
          "name": "tokenId",
          "type": "uint256"
        }
      ],
      "name": "Transfer",
      "type": "event"
    },
    {
      "inputs": [
        {
          "internalType": "address",
          "name": "to",
          "type": "address"
        },
        {
          "internalType": "uint256",
          "name": "tokenId",
          "type": "uint256"
        }
      ],
      "name": "approve",
      "outputs": [],
      "stateMutability": "nonpayable",
      "type": "function"
    },
    {
      "inputs": [
        {
          "internalType": "address",
          "name": "owner",
          "type": "address"
        }
      ],
      "name": "balanceOf",
      "outputs": [
        {
          "internalType": "uint256",
          "name": "",
          "type": "uint256"
        }
      ],
      "stateMutability": "view",
      "type": "function",
      "constant": true
    },
    {
      "inputs": [
        {
          "internalType": "uint256",
          "name": "tokenId",
          "type": "uint256"
        }
      ],
      "name": "getApproved",
      "outputs": [
        {
          "internalType": "address",
          "name": "",
          "type": "address"
        }
      ],
      "stateMutability": "view",
      "type": "function",
      "constant": true
    },
    {
      "inputs": [
        {
          "internalType": "address",
          "name": "owner",
          "type": "address"
        },
        {
          "internalType": "address",
          "name": "operator",
          "type": "address"
        }
      ],
      "name": "isApprovedForAll",
      "outputs": [
        {
          "internalType": "bool",
          "name": "",
          "type": "bool"
        }
      ],
      "stateMutability": "view",
      "type": "function",
      "constant": true
    },
    {
      "inputs": [],
      "name": "name",
      "outputs": [
        {
          "internalType": "string",
          "name": "",
          "type": "string"
        }
      ],
      "stateMutability": "view",
      "type": "function",
      "constant": true
    },
    {
      "inputs": [
        {
          "internalType": "uint256",
          "name": "tokenId",
          "type": "uint256"
        }
      ],
      "name": "ownerOf",
      "outputs": [
        {
          "internalType": "address",
          "name": "",
          "type": "address"
        }
      ],
      "stateMutability": "view",
      "type": "function",
      "constant": true
    },
    {
      "inputs": [
        {
          "internalType": "address",
          "name": "from",
          "type": "address"
        },
        {
          "internalType": "address",
          "name": "to",
          "type": "address"
        },
        {
          "internalType": "uint256",
          "name": "tokenId",
          "type": "uint256"
        }
      ],
      "name": "safeTransferFrom",
      "outputs": [],
      "stateMutability": "nonpayable",
      "type": "function"
    },
    {
      "inputs": [
        {
          "internalType": "address",
          "name": "from",
          "type": "address"
        },
        {
          "internalType": "address",
          "name": "to",
          "type": "address"
        },
        {
          "internalType": "uint256",
          "name": "tokenId",
          "type": "uint256"
        },
        {
          "internalType": "bytes",
          "name": "data",
          "type": "bytes"
        }
      ],
      "name": "safeTransferFrom",
      "outputs": [],
      "stateMutability": "nonpayable",
      "type": "function"
    },
    {
      "inputs": [
        {
          "internalType": "address",
          "name": "operator",
          "type": "address"
        },
        {
          "internalType": "bool",
          "name": "approved",
          "type": "bool"
        }
      ],
      "name": "setApprovalForAll",
      "outputs": [],
      "stateMutability": "nonpayable",
      "type": "function"
    },
    {
      "inputs": [
        {
          "internalType": "bytes4",
          "name": "interfaceId",
          "type": "bytes4"
        }
      ],
      "name": "supportsInterface",
      "outputs": [
        {
          "internalType": "bool",
          "name": "",
          "type": "bool"
        }
      ],
      "stateMutability": "view",
      "type": "function",
      "constant": true
    },
    {
      "inputs": [],
      "name": "symbol",
      "outputs": [
        {
          "internalType": "string",
          "name": "",
          "type": "string"
        }
      ],
      "stateMutability": "view",
      "type": "function",
      "constant": true
    },
    {
      "inputs": [
        {
          "internalType": "uint256",
          "name": "tokenId",
          "type": "uint256"
        }
      ],
      "name": "tokenURI",
      "outputs": [
        {
          "internalType": "string",
          "name": "",
          "type": "string"
        }
      ],
      "stateMutability": "view",
      "type": "function",
      "constant": true
    },
    {
      "inputs": [
        {
          "internalType": "address",
          "name": "from",
          "type": "address"
        },
        {
          "internalType": "address",
          "name": "to",
          "type": "address"
        },
        {
          "internalType": "uint256",
          "name": "tokenId",
          "type": "uint256"
        }
      ],
      "name": "transferFrom",
      "outputs": [],
      "stateMutability": "nonpayable",
      "type": "function"
    },
    {
      "inputs": [
        {
          "internalType": "string",
          "name": "tokenURI",
          "type": "string"
        }
      ],
      "name": "createNFT",
      "outputs": [],
      "stateMutability": "nonpayable",
      "type": "function"
    },
    {
      "inputs": [],
      "name": "getOwnedNFTs",
      "outputs": [
        {
          "internalType": "uint256[]",
          "name": "",
          "type": "uint256[]"
        }
      ],
      "stateMutability": "view",
      "type": "function",
      "constant": true
    },
    {
      "inputs": [],
      "name": "getListedNFTs",
      "outputs": [
        {
          "components": [
            {
              "internalType": "uint256",
              "name": "tokenId",
              "type": "uint256"
            },
            {
              "internalType": "uint256",
              "name": "price",
              "type": "uint256"
            },
            {
              "internalType": "address payable",
              "name": "seller",
              "type": "address"
            }
          ],
          "internalType": "struct Token[]",
          "name": "",
          "type": "tuple[]"
        }
      ],
      "stateMutability": "view",
      "type": "function",
      "constant": true
    },
    {
      "inputs": [
        {
          "internalType": "uint256",
          "name": "tokenID",
          "type": "uint256"
        },
        {
          "internalType": "uint256",
          "name": "price",
          "type": "uint256"
        }
      ],
      "name": "listNFT",
      "outputs": [],
      "stateMutability": "nonpayable",
      "type": "function"
    },
    {
      "inputs": [
        {
          "internalType": "uint256",
          "name": "tokenID",
          "type": "uint256"
        }
      ],
      "name": "buyNFT",
      "outputs": [
        {
          "internalType": "bool",
          "name": "",
          "type": "bool"
        }
      ],
      "stateMutability": "payable",
      "type": "function",
      "payable": true
    }
  ],
  "bytecode": "0x60806040523480156200001157600080fd5b506040518060400160405280600881526020017f47616d654974656d0000000000000000000000000000000000000000000000008152506040518060400160405280600381526020017f49544d0000000000000000000000000000000000000000000000000000000000815250816000908051906020019062000096929190620000b8565b508060019080519060200190620000af929190620000b8565b505050620001cd565b828054620000c69062000168565b90600052602060002090601f016020900481019282620000ea576000855562000136565b82601f106200010557805160ff191683800117855562000136565b8280016001018555821562000136579182015b828111156200013557825182559160200191906001019062000118565b5b50905062000145919062000149565b5090565b5b80821115620001645760008160009055506001016200014a565b5090565b600060028204905060018216806200018157607f821691505b602082108114156200019857620001976200019e565b5b50919050565b7f4e487b7100000000000000000000000000000000000000000000000000000000600052602260045260246000fd5b613cdb80620001dd6000396000f3fe6080604052600436106101095760003560e01c80636352211e11610095578063a22cb46511610064578063a22cb46514610382578063b88d4fde146103ab578063c87b56dd146103d4578063da2ed03e14610411578063e985e9c51461043a57610109565b80636352211e146102b457806370a08231146102f157806394383f141461032e57806395d89b411461035757610109565b8063095ea7b3116100dc578063095ea7b3146101de57806323b872dd1461020757806342842e0e146102305780634c0eb7d91461025957806351ed82881461028457610109565b8063012386f01461010e57806301ffc9a71461013957806306fdde0314610176578063081812fc146101a1575b600080fd5b34801561011a57600080fd5b50610123610477565b6040516101309190613242565b60405180910390f35b34801561014557600080fd5b50610160600480360381019061015b9190612c00565b610540565b60405161016d9190613286565b60405180910390f35b34801561018257600080fd5b5061018b6105a1565b60405161019891906132a1565b60405180910390f35b3480156101ad57600080fd5b506101c860048036038101906101c39190612c97565b610633565b6040516101d591906131a4565b60405180910390f35b3480156101ea57600080fd5b5061020560048036038101906102009190612bc4565b610679565b005b34801561021357600080fd5b5061022e60048036038101906102299190612abe565b610791565b005b34801561023c57600080fd5b5061025760048036038101906102529190612abe565b6107f1565b005b34801561026557600080fd5b5061026e610811565b60405161027b9190613264565b60405180910390f35b61029e60048036038101906102999190612c97565b6108a6565b6040516102ab9190613286565b60405180910390f35b3480156102c057600080fd5b506102db60048036038101906102d69190612c97565b610d9f565b6040516102e891906131a4565b60405180910390f35b3480156102fd57600080fd5b5061031860048036038101906103139190612a59565b610e26565b60405161032591906134c3565b60405180910390f35b34801561033a57600080fd5b5061035560048036038101906103509190612cc0565b610ede565b005b34801561036357600080fd5b5061036c6113d2565b60405161037991906132a1565b60405180910390f35b34801561038e57600080fd5b506103a960048036038101906103a49190612b88565b611464565b005b3480156103b757600080fd5b506103d260048036038101906103cd9190612b0d565b61147a565b005b3480156103e057600080fd5b506103fb60048036038101906103f69190612c97565b6114dc565b60405161040891906132a1565b60405180910390f35b34801561041d57600080fd5b5061043860048036038101906104339190612c52565b6115ef565b005b34801561044657600080fd5b50610461600480360381019061045c9190612a82565b6116d3565b60405161046e9190613286565b60405180910390f35b6060600a805480602002602001604051908101604052809291908181526020016000905b82821015610537578382906000526020600020906003020160405180606001604052908160008201548152602001600182015481526020016002820160009054906101000a900473ffffffffffffffffffffffffffffffffffffffff1673ffffffffffffffffffffffffffffffffffffffff1673ffffffffffffffffffffffffffffffffffffffff16815250508152602001906001019061049b565b50505050905090565b6000634906490660e01b7bffffffffffffffffffffffffffffffffffffffffffffffffffffffff1916827bffffffffffffffffffffffffffffffffffffffffffffffffffffffff1916148061059a575061059982611767565b5b9050919050565b6060600080546105b0906136f0565b80601f01602080910402602001604051908101604052809291908181526020018280546105dc906136f0565b80156106295780601f106105fe57610100808354040283529160200191610629565b820191906000526020600020905b81548152906001019060200180831161060c57829003601f168201915b5050505050905090565b600061063e82611849565b6004600083815260200190815260200160002060009054906101000a900473ffffffffffffffffffffffffffffffffffffffff169050919050565b600061068482610d9f565b90508073ffffffffffffffffffffffffffffffffffffffff168373ffffffffffffffffffffffffffffffffffffffff1614156106f5576040517f08c379a00000000000000000000000000000000000000000000000000000000081526004016106ec90613463565b60405180910390fd5b8073ffffffffffffffffffffffffffffffffffffffff16610714611894565b73ffffffffffffffffffffffffffffffffffffffff16148061074357506107428161073d611894565b6116d3565b5b610782576040517f08c379a000000000000000000000000000000000000000000000000000000000815260040161077990613483565b60405180910390fd5b61078c838361189c565b505050565b6107a261079c611894565b82611955565b6107e1576040517f08c379a00000000000000000000000000000000000000000000000000000000081526004016107d8906132c3565b60405180910390fd5b6107ec8383836119ea565b505050565b61080c8383836040518060200160405280600081525061147a565b505050565b6060600960003373ffffffffffffffffffffffffffffffffffffffff1673ffffffffffffffffffffffffffffffffffffffff16815260200190815260200160002080548060200260200160405190810160405280929190818152602001828054801561089c57602002820191906000526020600020905b815481526020019060010190808311610888575b5050505050905090565b600080600860008481526020019081526020016000206001015411610900576040517f08c379a00000000000000000000000000000000000000000000000000000000081526004016108f790613423565b60405180910390fd5b60086000838152602001908152602001600020600101543414610958576040517f08c379a000000000000000000000000000000000000000000000000000000000815260040161094f906133a3565b60405180910390fd5b3073ffffffffffffffffffffffffffffffffffffffff166323b872dd3033856040518463ffffffff1660e01b8152600401610995939291906131bf565b600060405180830381600087803b1580156109af57600080fd5b505af11580156109c3573d6000803e3d6000fd5b50505050600960003373ffffffffffffffffffffffffffffffffffffffff1673ffffffffffffffffffffffffffffffffffffffff16815260200190815260200160002082908060018154018082558091505060019003906000526020600020016000909190919091505560006008600084815260200190815260200160002060020160009054906101000a900473ffffffffffffffffffffffffffffffffffffffff1673ffffffffffffffffffffffffffffffffffffffff1634604051610a899061318f565b60006040518083038185875af1925050503d8060008114610ac6576040519150601f19603f3d011682016040523d82523d6000602084013e610acb565b606091505b50509050604051806060016040528084815260200160008152602001600073ffffffffffffffffffffffffffffffffffffffff1681525060086000858152602001908152602001600020600082015181600001556020820151816001015560408201518160020160006101000a81548173ffffffffffffffffffffffffffffffffffffffff021916908373ffffffffffffffffffffffffffffffffffffffff16021790555090505060005b600a80549050811015610d955783600a8281548110610bbe577f4e487b7100000000000000000000000000000000000000000000000000000000600052603260045260246000fd5b9060005260206000209060030201600001541415610d8257600a6001600a80549050610bea91906135f4565b81548110610c21577f4e487b7100000000000000000000000000000000000000000000000000000000600052603260045260246000fd5b9060005260206000209060030201600a8281548110610c69577f4e487b7100000000000000000000000000000000000000000000000000000000600052603260045260246000fd5b906000526020600020906003020160008201548160000155600182015481600101556002820160009054906101000a900473ffffffffffffffffffffffffffffffffffffffff168160020160006101000a81548173ffffffffffffffffffffffffffffffffffffffff021916908373ffffffffffffffffffffffffffffffffffffffff160217905550905050600a805480610d2d577f4e487b7100000000000000000000000000000000000000000000000000000000600052603160045260246000fd5b600190038181906000526020600020906003020160008082016000905560018201600090556002820160006101000a81549073ffffffffffffffffffffffffffffffffffffffff021916905550509055610d95565b8080610d8d90613753565b915050610b76565b5080915050919050565b600080610dab83611ce4565b9050600073ffffffffffffffffffffffffffffffffffffffff168173ffffffffffffffffffffffffffffffffffffffff161415610e1d576040517f08c379a0000000000000000000000000000000000000000000000000000000008152600401610e1490613443565b60405180910390fd5b80915050919050565b60008073ffffffffffffffffffffffffffffffffffffffff168273ffffffffffffffffffffffffffffffffffffffff161415610e97576040517f08c379a0000000000000000000000000000000000000000000000000000000008152600401610e8e906133c3565b60405180910390fd5b600360008373ffffffffffffffffffffffffffffffffffffffff1673ffffffffffffffffffffffffffffffffffffffff168152602001908152602001600020549050919050565b60008111610f21576040517f08c379a0000000000000000000000000000000000000000000000000000000008152600401610f18906132e3565b60405180910390fd5b3373ffffffffffffffffffffffffffffffffffffffff16610f4183610d9f565b73ffffffffffffffffffffffffffffffffffffffff1614610f97576040517f08c379a0000000000000000000000000000000000000000000000000000000008152600401610f8e906134a3565b60405180910390fd5b610fa2333084610791565b60405180606001604052808381526020018281526020013373ffffffffffffffffffffffffffffffffffffffff1681525060086000848152602001908152602001600020600082015181600001556020820151816001015560408201518160020160006101000a81548173ffffffffffffffffffffffffffffffffffffffff021916908373ffffffffffffffffffffffffffffffffffffffff160217905550905050600a60086000848152602001908152602001600020908060018154018082558091505060019003906000526020600020906003020160009091909190915060008201548160000155600182015481600101556002820160009054906101000a900473ffffffffffffffffffffffffffffffffffffffff168160020160006101000a81548173ffffffffffffffffffffffffffffffffffffffff021916908373ffffffffffffffffffffffffffffffffffffffff160217905550505060005b600960003373ffffffffffffffffffffffffffffffffffffffff1673ffffffffffffffffffffffffffffffffffffffff168152602001908152602001600020805490508110156113cd5782600960003373ffffffffffffffffffffffffffffffffffffffff1673ffffffffffffffffffffffffffffffffffffffff16815260200190815260200160002082815481106111c4577f4e487b7100000000000000000000000000000000000000000000000000000000600052603260045260246000fd5b906000526020600020015414156113ba57600960003373ffffffffffffffffffffffffffffffffffffffff1673ffffffffffffffffffffffffffffffffffffffff1681526020019081526020016000206001600960003373ffffffffffffffffffffffffffffffffffffffff1673ffffffffffffffffffffffffffffffffffffffff1681526020019081526020016000208054905061126391906135f4565b8154811061129a577f4e487b7100000000000000000000000000000000000000000000000000000000600052603260045260246000fd5b9060005260206000200154600960003373ffffffffffffffffffffffffffffffffffffffff1673ffffffffffffffffffffffffffffffffffffffff168152602001908152602001600020828154811061131c577f4e487b7100000000000000000000000000000000000000000000000000000000600052603260045260246000fd5b9060005260206000200181905550600960003373ffffffffffffffffffffffffffffffffffffffff1673ffffffffffffffffffffffffffffffffffffffff16815260200190815260200160002080548061139f577f4e487b7100000000000000000000000000000000000000000000000000000000600052603160045260246000fd5b600190038181906000526020600020016000905590556113cd565b80806113c590613753565b915050611102565b505050565b6060600180546113e1906136f0565b80601f016020809104026020016040519081016040528092919081815260200182805461140d906136f0565b801561145a5780601f1061142f5761010080835404028352916020019161145a565b820191906000526020600020905b81548152906001019060200180831161143d57829003601f168201915b5050505050905090565b61147661146f611894565b8383611d21565b5050565b61148b611485611894565b83611955565b6114ca576040517f08c379a00000000000000000000000000000000000000000000000000000000081526004016114c1906132c3565b60405180910390fd5b6114d684848484611e8e565b50505050565b60606114e782611849565b6000600660008481526020019081526020016000208054611507906136f0565b80601f0160208091040260200160405190810160405280929190818152602001828054611533906136f0565b80156115805780601f1061155557610100808354040283529160200191611580565b820191906000526020600020905b81548152906001019060200180831161156357829003601f168201915b505050505090506000611591611eea565b90506000815114156115a75781925050506115ea565b6000825111156115dc5780826040516020016115c492919061316b565b604051602081830303815290604052925050506115ea565b6115e584611f01565b925050505b919050565b6115f96007611f69565b60006116056007611f7f565b90506116113382611f8d565b61165f8184848080601f016020809104026020016040519081016040528093929190818152602001838380828437600081840152601f19601f82011690508083019250505050505050611fab565b600960003373ffffffffffffffffffffffffffffffffffffffff1673ffffffffffffffffffffffffffffffffffffffff1681526020019081526020016000206116a86007611f7f565b9080600181540180825580915050600190039060005260206000200160009091909190915055505050565b6000600560008473ffffffffffffffffffffffffffffffffffffffff1673ffffffffffffffffffffffffffffffffffffffff16815260200190815260200160002060008373ffffffffffffffffffffffffffffffffffffffff1673ffffffffffffffffffffffffffffffffffffffff16815260200190815260200160002060009054906101000a900460ff16905092915050565b60007f80ac58cd000000000000000000000000000000000000000000000000000000007bffffffffffffffffffffffffffffffffffffffffffffffffffffffff1916827bffffffffffffffffffffffffffffffffffffffffffffffffffffffff1916148061183257507f5b5e139f000000000000000000000000000000000000000000000000000000007bffffffffffffffffffffffffffffffffffffffffffffffffffffffff1916827bffffffffffffffffffffffffffffffffffffffffffffffffffffffff1916145b80611842575061184182612056565b5b9050919050565b611852816120c0565b611891576040517f08c379a000000000000000000000000000000000000000000000000000000000815260040161188890613443565b60405180910390fd5b50565b600033905090565b816004600083815260200190815260200160002060006101000a81548173ffffffffffffffffffffffffffffffffffffffff021916908373ffffffffffffffffffffffffffffffffffffffff160217905550808273ffffffffffffffffffffffffffffffffffffffff1661190f83610d9f565b73ffffffffffffffffffffffffffffffffffffffff167f8c5be1e5ebec7d5bd14f71427d1e84f3dd0314c0f7b2291e5b200ac8c7c3b92560405160405180910390a45050565b60008061196183610d9f565b90508073ffffffffffffffffffffffffffffffffffffffff168473ffffffffffffffffffffffffffffffffffffffff1614806119a357506119a281856116d3565b5b806119e157508373ffffffffffffffffffffffffffffffffffffffff166119c984610633565b73ffffffffffffffffffffffffffffffffffffffff16145b91505092915050565b8273ffffffffffffffffffffffffffffffffffffffff16611a0a82610d9f565b73ffffffffffffffffffffffffffffffffffffffff1614611a60576040517f08c379a0000000000000000000000000000000000000000000000000000000008152600401611a5790613323565b60405180910390fd5b600073ffffffffffffffffffffffffffffffffffffffff168273ffffffffffffffffffffffffffffffffffffffff161415611ad0576040517f08c379a0000000000000000000000000000000000000000000000000000000008152600401611ac790613363565b60405180910390fd5b611add8383836001612101565b8273ffffffffffffffffffffffffffffffffffffffff16611afd82610d9f565b73ffffffffffffffffffffffffffffffffffffffff1614611b53576040517f08c379a0000000000000000000000000000000000000000000000000000000008152600401611b4a90613323565b60405180910390fd5b6004600082815260200190815260200160002060006101000a81549073ffffffffffffffffffffffffffffffffffffffff02191690556001600360008573ffffffffffffffffffffffffffffffffffffffff1673ffffffffffffffffffffffffffffffffffffffff168152602001908152602001600020600082825403925050819055506001600360008473ffffffffffffffffffffffffffffffffffffffff1673ffffffffffffffffffffffffffffffffffffffff16815260200190815260200160002060008282540192505081905550816002600083815260200190815260200160002060006101000a81548173ffffffffffffffffffffffffffffffffffffffff021916908373ffffffffffffffffffffffffffffffffffffffff160217905550808273ffffffffffffffffffffffffffffffffffffffff168473ffffffffffffffffffffffffffffffffffffffff167fddf252ad1be2c89b69c2b068fc378daa952ba7f163c4a11628f55a4df523b3ef60405160405180910390a4611cdf8383836001612107565b505050565b60006002600083815260200190815260200160002060009054906101000a900473ffffffffffffffffffffffffffffffffffffffff169050919050565b8173ffffffffffffffffffffffffffffffffffffffff168373ffffffffffffffffffffffffffffffffffffffff161415611d90576040517f08c379a0000000000000000000000000000000000000000000000000000000008152600401611d8790613383565b60405180910390fd5b80600560008573ffffffffffffffffffffffffffffffffffffffff1673ffffffffffffffffffffffffffffffffffffffff16815260200190815260200160002060008473ffffffffffffffffffffffffffffffffffffffff1673ffffffffffffffffffffffffffffffffffffffff16815260200190815260200160002060006101000a81548160ff0219169083151502179055508173ffffffffffffffffffffffffffffffffffffffff168373ffffffffffffffffffffffffffffffffffffffff167f17307eab39ab6107e8899845ad3d59bd9653f200f220920489ca2b5937696c3183604051611e819190613286565b60405180910390a3505050565b611e998484846119ea565b611ea58484848461210d565b611ee4576040517f08c379a0000000000000000000000000000000000000000000000000000000008152600401611edb90613303565b60405180910390fd5b50505050565b606060405180602001604052806000815250905090565b6060611f0c82611849565b6000611f16611eea565b90506000815111611f365760405180602001604052806000815250611f61565b80611f40846122a4565b604051602001611f5192919061316b565b6040516020818303038152906040525b915050919050565b6001816000016000828254019250508190555050565b600081600001549050919050565b611fa78282604051806020016040528060008152506123c8565b5050565b611fb4826120c0565b611ff3576040517f08c379a0000000000000000000000000000000000000000000000000000000008152600401611fea906133e3565b60405180910390fd5b8060066000848152602001908152602001600020908051906020019061201a92919061289b565b507ff8e1a15aba9398e019f0b49df1a4fde98ee17ae345cb5f6b5e2c27f5033e8ce78260405161204a91906134c3565b60405180910390a15050565b60007f01ffc9a7000000000000000000000000000000000000000000000000000000007bffffffffffffffffffffffffffffffffffffffffffffffffffffffff1916827bffffffffffffffffffffffffffffffffffffffffffffffffffffffff1916149050919050565b60008073ffffffffffffffffffffffffffffffffffffffff166120e283611ce4565b73ffffffffffffffffffffffffffffffffffffffff1614159050919050565b50505050565b50505050565b600061212e8473ffffffffffffffffffffffffffffffffffffffff16612423565b15612297578373ffffffffffffffffffffffffffffffffffffffff1663150b7a02612157611894565b8786866040518563ffffffff1660e01b815260040161217994939291906131f6565b602060405180830381600087803b15801561219357600080fd5b505af19250505080156121c457506040513d601f19601f820116820180604052508101906121c19190612c29565b60015b612247573d80600081146121f4576040519150601f19603f3d011682016040523d82523d6000602084013e6121f9565b606091505b5060008151141561223f576040517f08c379a000000000000000000000000000000000000000000000000000000000815260040161223690613303565b60405180910390fd5b805181602001fd5b63150b7a0260e01b7bffffffffffffffffffffffffffffffffffffffffffffffffffffffff1916817bffffffffffffffffffffffffffffffffffffffffffffffffffffffff19161491505061229c565b600190505b949350505050565b6060600060016122b384612446565b01905060008167ffffffffffffffff8111156122f8577f4e487b7100000000000000000000000000000000000000000000000000000000600052604160045260246000fd5b6040519080825280601f01601f19166020018201604052801561232a5781602001600182028036833780820191505090505b509050600082602001820190505b6001156123bd578080600190039150507f3031323334353637383961626364656600000000000000000000000000000000600a86061a8153600a85816123a7577f4e487b7100000000000000000000000000000000000000000000000000000000600052601260045260246000fd5b04945060008514156123b8576123bd565b612338565b819350505050919050565b6123d2838361267d565b6123df600084848461210d565b61241e576040517f08c379a000000000000000000000000000000000000000000000000000000000815260040161241590613303565b60405180910390fd5b505050565b6000808273ffffffffffffffffffffffffffffffffffffffff163b119050919050565b600080600090507a184f03e93ff9f4daa797ed6e38ed64bf6a1f01000000000000000083106124ca577a184f03e93ff9f4daa797ed6e38ed64bf6a1f01000000000000000083816124c0577f4e487b7100000000000000000000000000000000000000000000000000000000600052601260045260246000fd5b0492506040810190505b6d04ee2d6d415b85acef8100000000831061252d576d04ee2d6d415b85acef81000000008381612523577f4e487b7100000000000000000000000000000000000000000000000000000000600052601260045260246000fd5b0492506020810190505b662386f26fc10000831061258257662386f26fc100008381612578577f4e487b7100000000000000000000000000000000000000000000000000000000600052601260045260246000fd5b0492506010810190505b6305f5e10083106125d1576305f5e10083816125c7577f4e487b7100000000000000000000000000000000000000000000000000000000600052601260045260246000fd5b0492506008810190505b612710831061261c576127108381612612577f4e487b7100000000000000000000000000000000000000000000000000000000600052601260045260246000fd5b0492506004810190505b60648310612665576064838161265b577f4e487b7100000000000000000000000000000000000000000000000000000000600052601260045260246000fd5b0492506002810190505b600a8310612674576001810190505b80915050919050565b600073ffffffffffffffffffffffffffffffffffffffff168273ffffffffffffffffffffffffffffffffffffffff1614156126ed576040517f08c379a00000000000000000000000000000000000000000000000000000000081526004016126e490613403565b60405180910390fd5b6126f6816120c0565b15612736576040517f08c379a000000000000000000000000000000000000000000000000000000000815260040161272d90613343565b60405180910390fd5b612744600083836001612101565b61274d816120c0565b1561278d576040517f08c379a000000000000000000000000000000000000000000000000000000000815260040161278490613343565b60405180910390fd5b6001600360008473ffffffffffffffffffffffffffffffffffffffff1673ffffffffffffffffffffffffffffffffffffffff16815260200190815260200160002060008282540192505081905550816002600083815260200190815260200160002060006101000a81548173ffffffffffffffffffffffffffffffffffffffff021916908373ffffffffffffffffffffffffffffffffffffffff160217905550808273ffffffffffffffffffffffffffffffffffffffff16600073ffffffffffffffffffffffffffffffffffffffff167fddf252ad1be2c89b69c2b068fc378daa952ba7f163c4a11628f55a4df523b3ef60405160405180910390a4612897600083836001612107565b5050565b8280546128a7906136f0565b90600052602060002090601f0160209004810192826128c95760008555612910565b82601f106128e257805160ff1916838001178555612910565b82800160010185558215612910579182015b8281111561290f5782518255916020019190600101906128f4565b5b50905061291d9190612921565b5090565b5b8082111561293a576000816000905550600101612922565b5090565b600061295161294c84613503565b6134de565b90508281526020810184848401111561296957600080fd5b6129748482856136ae565b509392505050565b60008135905061298b81613c49565b92915050565b6000813590506129a081613c60565b92915050565b6000813590506129b581613c77565b92915050565b6000815190506129ca81613c77565b92915050565b600082601f8301126129e157600080fd5b81356129f184826020860161293e565b91505092915050565b60008083601f840112612a0c57600080fd5b8235905067ffffffffffffffff811115612a2557600080fd5b602083019150836001820283011115612a3d57600080fd5b9250929050565b600081359050612a5381613c8e565b92915050565b600060208284031215612a6b57600080fd5b6000612a798482850161297c565b91505092915050565b60008060408385031215612a9557600080fd5b6000612aa38582860161297c565b9250506020612ab48582860161297c565b9150509250929050565b600080600060608486031215612ad357600080fd5b6000612ae18682870161297c565b9350506020612af28682870161297c565b9250506040612b0386828701612a44565b9150509250925092565b60008060008060808587031215612b2357600080fd5b6000612b318782880161297c565b9450506020612b428782880161297c565b9350506040612b5387828801612a44565b925050606085013567ffffffffffffffff811115612b7057600080fd5b612b7c878288016129d0565b91505092959194509250565b60008060408385031215612b9b57600080fd5b6000612ba98582860161297c565b9250506020612bba85828601612991565b9150509250929050565b60008060408385031215612bd757600080fd5b6000612be58582860161297c565b9250506020612bf685828601612a44565b9150509250929050565b600060208284031215612c1257600080fd5b6000612c20848285016129a6565b91505092915050565b600060208284031215612c3b57600080fd5b6000612c49848285016129bb565b91505092915050565b60008060208385031215612c6557600080fd5b600083013567ffffffffffffffff811115612c7f57600080fd5b612c8b858286016129fa565b92509250509250929050565b600060208284031215612ca957600080fd5b6000612cb784828501612a44565b91505092915050565b60008060408385031215612cd357600080fd5b6000612ce185828601612a44565b9250506020612cf285828601612a44565b9150509250929050565b6000612d08838361310b565b60608301905092915050565b6000612d20838361314d565b60208301905092915050565b612d358161363a565b82525050565b612d4481613628565b82525050565b6000612d5582613554565b612d5f818561359a565b9350612d6a83613534565b8060005b83811015612d9b578151612d828882612cfc565b9750612d8d83613580565b925050600181019050612d6e565b5085935050505092915050565b6000612db38261355f565b612dbd81856135ab565b9350612dc883613544565b8060005b83811015612df9578151612de08882612d14565b9750612deb8361358d565b925050600181019050612dcc565b5085935050505092915050565b612e0f8161364c565b82525050565b6000612e208261356a565b612e2a81856135bc565b9350612e3a8185602086016136bd565b612e4381613829565b840191505092915050565b6000612e5982613575565b612e6381856135d8565b9350612e738185602086016136bd565b612e7c81613829565b840191505092915050565b6000612e9282613575565b612e9c81856135e9565b9350612eac8185602086016136bd565b80840191505092915050565b6000612ec5602d836135d8565b9150612ed08261383a565b604082019050919050565b6000612ee86027836135d8565b9150612ef382613889565b604082019050919050565b6000612f0b6032836135d8565b9150612f16826138d8565b604082019050919050565b6000612f2e6025836135d8565b9150612f3982613927565b604082019050919050565b6000612f51601c836135d8565b9150612f5c82613976565b602082019050919050565b6000612f746024836135d8565b9150612f7f8261399f565b604082019050919050565b6000612f976019836135d8565b9150612fa2826139ee565b602082019050919050565b6000612fba602b836135d8565b9150612fc582613a17565b604082019050919050565b6000612fdd6029836135d8565b9150612fe882613a66565b604082019050919050565b6000613000602e836135d8565b915061300b82613ab5565b604082019050919050565b60006130236020836135d8565b915061302e82613b04565b602082019050919050565b6000613046601f836135d8565b915061305182613b2d565b602082019050919050565b60006130696018836135d8565b915061307482613b56565b602082019050919050565b600061308c6021836135d8565b915061309782613b7f565b604082019050919050565b60006130af6000836135cd565b91506130ba82613bce565b600082019050919050565b60006130d2603d836135d8565b91506130dd82613bd1565b604082019050919050565b60006130f56020836135d8565b915061310082613c20565b602082019050919050565b606082016000820151613121600085018261314d565b506020820151613134602085018261314d565b5060408201516131476040850182612d2c565b50505050565b613156816136a4565b82525050565b613165816136a4565b82525050565b60006131778285612e87565b91506131838284612e87565b91508190509392505050565b600061319a826130a2565b9150819050919050565b60006020820190506131b96000830184612d3b565b92915050565b60006060820190506131d46000830186612d3b565b6131e16020830185612d3b565b6131ee604083018461315c565b949350505050565b600060808201905061320b6000830187612d3b565b6132186020830186612d3b565b613225604083018561315c565b81810360608301526132378184612e15565b905095945050505050565b6000602082019050818103600083015261325c8184612d4a565b905092915050565b6000602082019050818103600083015261327e8184612da8565b905092915050565b600060208201905061329b6000830184612e06565b92915050565b600060208201905081810360008301526132bb8184612e4e565b905092915050565b600060208201905081810360008301526132dc81612eb8565b9050919050565b600060208201905081810360008301526132fc81612edb565b9050919050565b6000602082019050818103600083015261331c81612efe565b9050919050565b6000602082019050818103600083015261333c81612f21565b9050919050565b6000602082019050818103600083015261335c81612f44565b9050919050565b6000602082019050818103600083015261337c81612f67565b9050919050565b6000602082019050818103600083015261339c81612f8a565b9050919050565b600060208201905081810360008301526133bc81612fad565b9050919050565b600060208201905081810360008301526133dc81612fd0565b9050919050565b600060208201905081810360008301526133fc81612ff3565b9050919050565b6000602082019050818103600083015261341c81613016565b9050919050565b6000602082019050818103600083015261343c81613039565b9050919050565b6000602082019050818103600083015261345c8161305c565b9050919050565b6000602082019050818103600083015261347c8161307f565b9050919050565b6000602082019050818103600083015261349c816130c5565b9050919050565b600060208201905081810360008301526134bc816130e8565b9050919050565b60006020820190506134d8600083018461315c565b92915050565b60006134e86134f9565b90506134f48282613722565b919050565b6000604051905090565b600067ffffffffffffffff82111561351e5761351d6137fa565b5b61352782613829565b9050602081019050919050565b6000819050602082019050919050565b6000819050602082019050919050565b600081519050919050565b600081519050919050565b600081519050919050565b600081519050919050565b6000602082019050919050565b6000602082019050919050565b600082825260208201905092915050565b600082825260208201905092915050565b600082825260208201905092915050565b600081905092915050565b600082825260208201905092915050565b600081905092915050565b60006135ff826136a4565b915061360a836136a4565b92508282101561361d5761361c61379c565b5b828203905092915050565b600061363382613684565b9050919050565b600061364582613684565b9050919050565b60008115159050919050565b60007fffffffff0000000000000000000000000000000000000000000000000000000082169050919050565b600073ffffffffffffffffffffffffffffffffffffffff82169050919050565b6000819050919050565b82818337600083830152505050565b60005b838110156136db5780820151818401526020810190506136c0565b838111156136ea576000848401525b50505050565b6000600282049050600182168061370857607f821691505b6020821081141561371c5761371b6137cb565b5b50919050565b61372b82613829565b810181811067ffffffffffffffff8211171561374a576137496137fa565b5b80604052505050565b600061375e826136a4565b91507fffffffffffffffffffffffffffffffffffffffffffffffffffffffffffffffff8214156137915761379061379c565b5b600182019050919050565b7f4e487b7100000000000000000000000000000000000000000000000000000000600052601160045260246000fd5b7f4e487b7100000000000000000000000000000000000000000000000000000000600052602260045260246000fd5b7f4e487b7100000000000000000000000000000000000000000000000000000000600052604160045260246000fd5b6000601f19601f8301169050919050565b7f4552433732313a2063616c6c6572206973206e6f7420746f6b656e206f776e6560008201527f72206f7220617070726f76656400000000000000000000000000000000000000602082015250565b7f4e46544d61726b65743a207072696365206d757374206265206772656174657260008201527f207468616e203000000000000000000000000000000000000000000000000000602082015250565b7f4552433732313a207472616e7366657220746f206e6f6e20455243373231526560008201527f63656976657220696d706c656d656e7465720000000000000000000000000000602082015250565b7f4552433732313a207472616e736665722066726f6d20696e636f72726563742060008201527f6f776e6572000000000000000000000000000000000000000000000000000000602082015250565b7f4552433732313a20746f6b656e20616c7265616479206d696e74656400000000600082015250565b7f4552433732313a207472616e7366657220746f20746865207a65726f2061646460008201527f7265737300000000000000000000000000000000000000000000000000000000602082015250565b7f4552433732313a20617070726f766520746f2063616c6c657200000000000000600082015250565b7f4e46544d61726b65743a204e6f742073756666696369656e74206d6f6e65792060008201527f7472616e73666572726564000000000000000000000000000000000000000000602082015250565b7f4552433732313a2061646472657373207a65726f206973206e6f74206120766160008201527f6c6964206f776e65720000000000000000000000000000000000000000000000602082015250565b7f45524337323155524953746f726167653a2055524920736574206f66206e6f6e60008201527f6578697374656e7420746f6b656e000000000000000000000000000000000000602082015250565b7f4552433732313a206d696e7420746f20746865207a65726f2061646472657373600082015250565b7f4e46544d61726b65743a204974656d206973206e6f7420666f722073616c6500600082015250565b7f4552433732313a20696e76616c696420746f6b656e2049440000000000000000600082015250565b7f4552433732313a20617070726f76616c20746f2063757272656e74206f776e6560008201527f7200000000000000000000000000000000000000000000000000000000000000602082015250565b50565b7f4552433732313a20617070726f76652063616c6c6572206973206e6f7420746f60008201527f6b656e206f776e6572206f7220617070726f76656420666f7220616c6c000000602082015250565b7f4e46544d61726b65743a20596f7520617265206e6f7420746865206f776e6572600082015250565b613c5281613628565b8114613c5d57600080fd5b50565b613c698161364c565b8114613c7457600080fd5b50565b613c8081613658565b8114613c8b57600080fd5b50565b613c97816136a4565b8114613ca257600080fd5b5056fea2646970667358221220ff40880d88814af4bb4e7313b58f7daec1b963d1daa3e7e65384b976d298d6fc64736f6c63430008040033",
  "immutableReferences": {},
  "source": "// SPDX-License-Identifier: MIT\npragma solidity ^0.8.4;\n\nimport \"@openzeppelin/contracts/token/ERC721/extensions/ERC721URIStorage.sol\";\nimport \"@openzeppelin/contracts/utils/Counters.sol\";\n\nstruct Token {\n    uint256 tokenId;\n    uint256 price;\n    address payable seller;\n}\n\ncontract NFT_MarketPlace is ERC721URIStorage {\n    using Counters for Counters.Counter;\n    Counters.Counter private _tokenIDs;\n\n    constructor() ERC721(\"GameItem\", \"ITM\") {}\n    mapping(uint256 => Token) private _item;\n    mapping(address => uint256[]) private ownedNFTs;\n\n    Token[] private _items;\n\n    function createNFT(string calldata tokenURI) public {\n        _tokenIDs.increment();\n        uint256 currentID = _tokenIDs.current();\n        _safeMint(msg.sender, currentID);\n        _setTokenURI(currentID, tokenURI);\n        ownedNFTs[msg.sender].push(_tokenIDs.current());\n    }\n\n    function getOwnedNFTs() public view returns (uint256[] memory) {\n        return ownedNFTs[msg.sender];\n    }\n\n    function getListedNFTs() public view returns (Token[] memory) {\n        return _items;\n    }\n\n    function listNFT(uint256 tokenID, uint256 price) public {\n        require(price > 0, \"NFTMarket: price must be greater than 0\");\n        require(ownerOf(tokenID)==msg.sender, \"NFTMarket: You are not the owner\");\n\n        transferFrom(msg.sender, address(this), tokenID);\n\n        _item[tokenID] = Token({\n            tokenId: tokenID,\n            price: price,\n            seller: payable(msg.sender)\n        });\n        _items.push(_item[tokenID]);\n\n        // Removing from Owned NFTs\n        for (uint256 i = 0; i < ownedNFTs[msg.sender].length; i++) {\n            if (ownedNFTs[msg.sender][i] == tokenID) {\n                ownedNFTs[msg.sender][i] = ownedNFTs[msg.sender][\n                    ownedNFTs[msg.sender].length - 1\n                ];\n                ownedNFTs[msg.sender].pop();\n                break;\n            }\n        }\n    }\n\n    function buyNFT(uint256 tokenID) public payable returns (bool) {\n        require(_item[tokenID].price > 0, \"NFTMarket: Item is not for sale\");\n        require(\n            msg.value == _item[tokenID].price,\n            \"NFTMarket: Not sufficient money transferred\"\n        );\n\n        // NFT Transfer\n        ERC721(address(this)).transferFrom(address(this), msg.sender, tokenID);\n        ownedNFTs[msg.sender].push(tokenID);\n\n        // Ether Transfer\n        (bool success, ) = _item[tokenID].seller.call{value: msg.value}(\"\");\n\n        // Clear Item\n        _item[tokenID] = Token({\n            tokenId: tokenID,\n            price: 0,\n            seller: payable(address(0))\n        });\n        for (uint256 i = 0; i < _items.length; i++) {\n            if (_items[i].tokenId == tokenID) {\n                _items[i] = _items[_items.length - 1];\n                _items.pop();\n                break;\n            }\n        }\n\n        return success;\n    }\n}\n",
  "sourcePath": "/home/arkapravadhar/Desktop/TDOC/contracts/NFT_MarketPlace.sol",
  "compiler": {
    "name": "solc",
    "version": "0.8.4+commit.c7e474f2.Emscripten.clang"
  },
  "schemaVersion": "3.4.16",
  "updatedAt": "2024-12-12T12:29:19.362Z",
  "networkType": "ethereum",
  "devdoc": {
    "kind": "dev",
    "methods": {
      "approve(address,uint256)": {
        "details": "See {IERC721-approve}."
      },
      "balanceOf(address)": {
        "details": "See {IERC721-balanceOf}."
      },
      "getApproved(uint256)": {
        "details": "See {IERC721-getApproved}."
      },
      "isApprovedForAll(address,address)": {
        "details": "See {IERC721-isApprovedForAll}."
      },
      "name()": {
        "details": "See {IERC721Metadata-name}."
      },
      "ownerOf(uint256)": {
        "details": "See {IERC721-ownerOf}."
      },
      "safeTransferFrom(address,address,uint256)": {
        "details": "See {IERC721-safeTransferFrom}."
      },
      "safeTransferFrom(address,address,uint256,bytes)": {
        "details": "See {IERC721-safeTransferFrom}."
      },
      "setApprovalForAll(address,bool)": {
        "details": "See {IERC721-setApprovalForAll}."
      },
      "supportsInterface(bytes4)": {
        "details": "See {IERC165-supportsInterface}"
      },
      "symbol()": {
        "details": "See {IERC721Metadata-symbol}."
      },
      "tokenURI(uint256)": {
        "details": "See {IERC721Metadata-tokenURI}."
      },
      "transferFrom(address,address,uint256)": {
        "details": "See {IERC721-transferFrom}."
      }
    },
    "version": 1
  },
  "userdoc": {
    "kind": "user",
    "methods": {},
    "version": 1
  }
}