{
  "contractName": "SpaceWars",
  "abi": [
    {
      "inputs": [
        {
          "internalType": "string",
          "name": "name",
          "type": "string"
        }
      ],
      "name": "registerPlayer",
      "outputs": [],
      "stateMutability": "nonpayable",
      "type": "function"
    },
    {
      "inputs": [
        {
          "internalType": "address",
          "name": "player",
          "type": "address"
        }
      ],
      "name": "isPlayerRegistered",
      "outputs": [
        {
          "internalType": "bool",
          "name": "",
          "type": "bool"
        }
      ],
      "stateMutability": "view",
      "type": "function"
    },
    {
      "inputs": [],
      "name": "getPlayerName",
      "outputs": [
        {
          "internalType": "string",
          "name": "",
          "type": "string"
        }
      ],
      "stateMutability": "view",
      "type": "function"
    }
  ],
  "bytecode": "0x608060405234801561001057600080fd5b5061080b806100206000396000f3fe608060405234801561001057600080fd5b50600436106100415760003560e01c80631417b82a14610046578063a69c659714610076578063b3446f8514610094575b600080fd5b610060600480360381019061005b9190610488565b6100b0565b60405161006d91906105a7565b60405180910390f35b61007e610106565b60405161008b91906105c2565b60405180910390f35b6100ae60048036038101906100a991906104b1565b610261565b005b6000806000808473ffffffffffffffffffffffffffffffffffffffff1673ffffffffffffffffffffffffffffffffffffffff16815260200190815260200160002080546100fc906106d1565b9050119050919050565b606060008060003373ffffffffffffffffffffffffffffffffffffffff1673ffffffffffffffffffffffffffffffffffffffff1681526020019081526020016000208054610153906106d1565b905011610195576040517f08c379a000000000000000000000000000000000000000000000000000000000815260040161018c90610624565b60405180910390fd5b6000803373ffffffffffffffffffffffffffffffffffffffff1673ffffffffffffffffffffffffffffffffffffffff16815260200190815260200160002080546101de906106d1565b80601f016020809104026020016040519081016040528092919081815260200182805461020a906106d1565b80156102575780601f1061022c57610100808354040283529160200191610257565b820191906000526020600020905b81548152906001019060200180831161023a57829003601f168201915b5050505050905090565b600082829050116102a7576040517f08c379a000000000000000000000000000000000000000000000000000000000815260040161029e906105e4565b60405180910390fd5b60008060003373ffffffffffffffffffffffffffffffffffffffff1673ffffffffffffffffffffffffffffffffffffffff16815260200190815260200160002080546102f2906106d1565b905014610334576040517f08c379a000000000000000000000000000000000000000000000000000000000815260040161032b90610604565b60405180910390fd5b81816000803373ffffffffffffffffffffffffffffffffffffffff1673ffffffffffffffffffffffffffffffffffffffff1681526020019081526020016000209190610381929190610386565b505050565b828054610392906106d1565b90600052602060002090601f0160209004810192826103b457600085556103fb565b82601f106103cd57803560ff19168380011785556103fb565b828001600101855582156103fb579182015b828111156103fa5782358255916020019190600101906103df565b5b509050610408919061040c565b5090565b5b8082111561042557600081600090555060010161040d565b5090565b600081359050610438816107be565b92915050565b60008083601f84011261045057600080fd5b8235905067ffffffffffffffff81111561046957600080fd5b60208301915083600182028301111561048157600080fd5b9250929050565b60006020828403121561049a57600080fd5b60006104a884828501610429565b91505092915050565b600080602083850312156104c457600080fd5b600083013567ffffffffffffffff8111156104de57600080fd5b6104ea8582860161043e565b92509250509250929050565b6104ff81610672565b82525050565b600061051082610644565b61051a818561064f565b935061052a81856020860161069e565b61053381610732565b840191505092915050565b600061054b60148361064f565b915061055682610743565b602082019050919050565b600061056e60198361064f565b91506105798261076c565b602082019050919050565b600061059160158361064f565b915061059c82610795565b602082019050919050565b60006020820190506105bc60008301846104f6565b92915050565b600060208201905081810360008301526105dc8184610505565b905092915050565b600060208201905081810360008301526105fd8161053e565b9050919050565b6000602082019050818103600083015261061d81610561565b9050919050565b6000602082019050818103600083015261063d81610584565b9050919050565b600081519050919050565b600082825260208201905092915050565b600061066b8261067e565b9050919050565b60008115159050919050565b600073ffffffffffffffffffffffffffffffffffffffff82169050919050565b60005b838110156106bc5780820151818401526020810190506106a1565b838111156106cb576000848401525b50505050565b600060028204905060018216806106e957607f821691505b602082108114156106fd576106fc610703565b5b50919050565b7f4e487b7100000000000000000000000000000000000000000000000000000000600052602260045260246000fd5b6000601f19601f8301169050919050565b7f4e616d652063616e6e6f7420626520656d707479000000000000000000000000600082015250565b7f506c6179657220616c7265616479207265676973746572656400000000000000600082015250565b7f506c61796572206e6f7420726567697374657265640000000000000000000000600082015250565b6107c781610660565b81146107d257600080fd5b5056fea26469706673582212200d93e2429f5121c2c489fc4bebccc5b54f9dad808353b470914a1b281fd1400c64736f6c63430008040033",
  "immutableReferences": {},
  "source": "// SPDX-License-Identifier: MIT\r\n\r\npragma solidity ^0.8.0;\r\n\r\ncontract SpaceWars {\r\n    mapping(address => string) playerName;\r\n\r\n    function registerPlayer(string calldata name) public {\r\n        require(bytes(name).length > 0, \"Name cannot be empty\");\r\n        require(bytes(playerName[msg.sender]).length == 0, \"Player already registered\");\r\n        playerName[msg.sender] = name;\r\n    }\r\n\r\n    function isPlayerRegistered(address player) public view returns (bool) {\r\n        return bytes(playerName[player]).length > 0;\r\n    }\r\n\r\n    function getPlayerName() public view returns(string memory) {\r\n        require(bytes(playerName[msg.sender]).length > 0, \"Player not registered\");\r\n        return playerName[msg.sender];\r\n    }\r\n}\r\n",
  "sourcePath": "C:\\Users\\uttam\\OneDrive\\Desktop\\spaceWars\\contracts\\SpaceWars.sol",
  "compiler": {
    "name": "solc",
    "version": "0.8.4+commit.c7e474f2.Emscripten.clang"
  },
  "schemaVersion": "3.4.16",
  "updatedAt": "2025-06-22T13:11:21.432Z",
  "devdoc": {
    "kind": "dev",
    "methods": {},
    "version": 1
  },
  "userdoc": {
    "kind": "user",
    "methods": {},
    "version": 1
  }
}